:100000000C94314B0C94A94B0C94A94B0C94A94B18
:100010000C94A94B0C94A94B0C94A94B0C94A94B90
:100020000C94A94B0C94A94B0C94A94B0C94A94B80
:100030000C94A94B0C94054C0C94444C0C94A94B77
:100040000C94A94B0C94A94B0C94A94B0C94A94B60
:100050000C94A94B0C94A94B0C94A94B0C94A94B50
:100060000C94A94B0C94A94B0C94A94B0C94A94B40
:100070005A5501200101003808000000000000006E
:100080000000000000000000000000000000000070
:10009000810045005DFF5E1027FF2AD22B7D210CD9
:1000A00022FB850084008903888D81096F02444208
:1000B00047004501B083B300B10124B925578A1D1B
:1000C0008B03364F394F414F464F4E4F574F5C4F82
:1000D000614F644F744F774F7A4FB54FB84FBB4F56
:1000E00000020800085504085A0000F800099000B2
:1000F0000A1E32050000FF000000E00000000000C2
:1001000000000000000000000000000000000000EF
:1001100000000000000000000000000000000000DF
:1001200000000000000000000000000000000000CF
:1001300000000000000000000000000000000000BF
:1001400000000000000000000000000000000000AF
:1001500000000049000000495252000052525C2D3C
:10016000000000000000000000000000000000008F
:100170000040000000494A52004952525B1C525351
:100180001C25241B2425251B0A0A2D1C12120A0AD1
:100190000000000000000000404949494949525B05
:1001A0005B5B525B1C1C1312241C12090909120907
:1001B0000909090A0A0A0A0A0A13120A0A12130A80
:1001C00000000000000092525252525213121309C2
:1001D000001C0A1212401B65090A0009241B1200A8
:1001E00000251C1C010025241C1C0024252424247B
:1001F0000000000000005249494000001B13524912
:100200004900641C1C5B4A481C651C2552491C1C87
:10021000652464491C1C652564491C1C6D2E5C49C1
:100220000000000000000000000000490000000085
:10023000535200000053522500004A522525000069
:100240005B251300005B53000A1C095B1C657F37AC
:100250004052522E2E1C525C2E251B1324251C1C92
:1002600012002525120000121B0000132E37001B60
:1002700037372E2E37372E2E2E2E2E2E6E6E6E1CCC
:100280001313120009131200001213130012251C7D
:1002900013132E371C131313361C131B1B1B251390
:1002A0001C1C1B1B1B1C1C1C1C1C1C1C1C1C1C139A
:1002B0001312121313001313131C000913131C0140
:1002C0000037131C13002E2E1C1C001C772E25003B
:1002D000137F251C010A37241C1C0A2E2525090022
:1002E000132E242525252E252525252525252D2EAE
:1002F000251B2E2E251C1325251C1C1C1C011C1C1B
:100300001300011C0A000165775C016E7F6E521BB1
:1003100025256D1C524925251C1353001C1C1C52FD
:100320004A001B135B5B000009525C0000005B5C31
:10033000000000001B0000000000000000000000A2
:10034000135B7F776E6E136577766E6E1B657776BF
:1003500076761B5BBF76B67609136DBFB7B6001B0A
:10036000125C76BF0000121B125B00000000090A3D
:100370006E6E6E77241C6E6E77251C1C6E776E1C5D
:100380001C1C76761C1C2425B765646D6D1B766D70
:100390006D5B09125B5C5B125B641213131B121220
:1003A0001C1C1C1C1C241C1C242525242425251B4A
:1003B00000002513000064BF00096EBFBF6D6EBF53
:1003C0006D5B12135B12131209000901000000009B
:1003D0002E1C0900096E010009767F7F12777F7F4E
:1003E0006412BF775B121B095B121B0900001B091B
:1003F00000000000000000000000000000000000FD
:100400007F7F5313130064121B0100001B120000B6
:1004100000000000000000000000000000000000DC
:1004200000000000000000000000000000000000CC
:100430000000000000002600000026002F00000041
:100440002F00370000003700FF000000FF00BF0052
:100450000000BF0037000037000000262600000023
:1004600000000000000026262626260000000000CE
:100470002F000000003700000000FF00000000BF58
:100480000000000037000000000026262626260077
:100490000000000000002626262626002F0000006F
:1004A0000000370000000000FFFFFFFF0000BF005A
:1004B0000000000037000000000026262626260047
:1004C0000000000000002626262600002F00000065
:1004D0002F00370000003700FFFFFFFF0000BF00C4
:1004E0000000BF0037000000370026262626000047
:1004F000000000000000000026262600002F00005B
:100500002F00370000003700FF000000FF00BF0091
:100510000000BF003700003700002626260000003C
:100520000000000000002600000026002F00000050
:100530002F000037003700000000FF00000000BF60
:1005400000BF000037000000370026000000260032
:10055000000000000000000000000000000000009B
:10056000000000000000000000000000000000008B
:100570000000009B000000529BA400005B9B6D7775
:10058000000000000000000000000000000000006B
:10059000005B000000E4F6FF099BEDF6FFBFA4AD91
:1005A000BFBFBFBF767F7FB7B7BF7F766EB7B7BF1E
:1005B00000000000000000005BB6F6F6F6FFFFFF4B
:1005C000FFBFFFFFFFBFBFAEFFFFFFB7AD65FFFF80
:1005D000B7B6AD65FFFFBFB7AE6EFFFFBFB7B7657C
:1005E000000000000000F6F6EDEDADA4B66D6D5C08
:1005F000526E6565655265765C5C52536E24655239
:10060000526E25255B52772D2525526E6E2D2525A0
:10061000000000000000A49B9B4900006564A49BAF
:1006200092006D2525649349656E652E9B522425A5
:100630006D25655225246D2D655225256E2E64523B
:1006400000000000000000000000004A0000000060
:100650005B9B0000005B5B2D0000525B2E2E0001B7
:100660005B2D1C01005C5B014A654A5B1C6E7F7759
:10067000495B9B77776D5B65776E65656D2D25258D
:100680005C522E25130949641C09095C7F7F091CF3
:100690007F7F777F777F77777F7F7776777F7F6EB4
:1006A000656E6EA4B6FF655BA4B7BFFF526DBFBF9A
:1006B000BFFF7FBFBFBFBFFFBFBFB7BFFFFF7FB7DA
:1006C000BFBFFFFF6EB7BFBFFFFF77BFBFBFFFFF5B
:1006D000FFFFBFBFB75BFFFFBFBFA464FFFFBFAD9E
:1006E000A47FFFFFBFA4BF7FFFBFADBFBFBFFFB6EB
:1006F000BFBFBF77F7BFBFBF7777FFBFBFBF645232
:100700006D7F6E2E2D2D7F766E6E6E2E77777776BF
:100710002E1C7F776E251C25776525251C096E6E9E
:100720001C0949255B494A6E7F645377BF775B5C40
:10073000256E6E255B4A25651C1B5B002524245B0A
:1007400053001C1B5B5C00000A5B640000006464D7
:10075000000000005C00000000000000000000003D
:100760005B5C7FBF77765C6D7FB777775C6D7FBFB3
:1007700077775C64BFBFBFBF0A5C6EBFBFBF006559
:10078000646DBFBF00005B6D646D00000000125B14
:100790007777777F6E6E77777F766D7677BF776DB9
:1007A0006E76BF7F6D6E767FBF7676BFBF76BFBF3A
:1007B000BFB664ADADB6B6ADBFFF646DADB6AD64EA
:1007C00077BFBFBFFFFF77BFBFBFFFFF7FBFBFBF09
:1007D000FFF6BFB7ADF6FFFFA4ADFFFFFFFFFFFFC2
:1007E000FFFFFFFFFFFFFFF6A4005B5200000000C9
:1007F000BFBFAD5B64BFB6ADADBFFFBFFFFFFFFFC7
:10080000BF64FFFFBFB6765BFFBFBF5B0000FF5C4E
:1008100000000000000000000000000000000000D8
:10082000BFBF645C5C006E5C654900006D5B0000EE
:1008300000000000000000000000000000000000B8
:1008400000000000000000000000000000000000A8
:10085000060004000000010002000300040005007F
:1008600006000700080009000A000B000C000D003C
:100870000E000F0010000000110012001300140001
:1008800015001600060003000000170018001900EC
:100890001A001B001C001D001E001F00200021006C
:1008A000220023002400250026000000004088913B
:1008B000D2E4ADB5B6BEBFFF0300010101010000E7
:1008C0000000000000000000000001000001010025
:1008D0000001000000000000000000000001010114
:1008E0000100000000000000000100000101000004
:1008F00001000000000000000003020000020202EC
:1009000000000000000000000000000202000200E1
:1009100000020000000000000000000000020202CF
:1009200000000200000000000000000200000200C1
:1009300002020000000000000000030000030303A7
:10094000030000000000000000000000030000039E
:10095000000003030000000000000000000003038B
:100960000303000000000000000000030300000378
:100970000000030000000000000000020404040462
:100980000000000000000000000000000404040457
:100990000000000000000000000000000404040447
:1009A0000000000000000000000000000404040437
:1009B000000000000000000000000000030005002F
:1009C0000505050000000000000000000000050013
:1009D0000005050005000000000000000000000008
:1009E00005050500050000000000000000000500EE
:1009F00005050000050000000000000000040000E4
:100A000000000606060600000000000000000000CE
:100A100006000000060000000600000006000000BE
:100A200000000000000006060606000000000006A8
:100A3000000000060000000600000006000003079A
:100A40000700000707000000000000000000000091
:100A5000000700070700070000000000000000007A
:100A6000000007070000070700000000000000006A
:100A70000700070700070000000000000000003228
:100A800030303820414C454320424F555251554556
:100A90000053434F52494E472045444954494F4E15
:100AA00020425920434C594D415800464F52205244
:100AB0004554524F414348494556454D454E545380
:100AC0002E4F5247003120504C41594552003220A0
:100AD000504C4159455200565320435055004F50F9
:100AE00054494F4E53004C494E4553004C455645D2
:100AF0004C0053434F52450047414D45204F56450A
:100B0000522100594F552057494E2100594F552029
:100B10004C4F5345212100505245535300535441EB
:100B200052540047414D45204F5054494F4E5300B9
:100B3000534F4E473A004241434B20544F204D45BE
:100B40004E55004D454E5500504C41590047484FB9
:100B5000535420424C4F434B3A00594553004E4F9B
:100B60002000524553554D4500524553544152546F
:100B70000000FF06015300C00000904C6B00C20053
:100B800000B2076E0092286B00C1000091476B0B0A
:100B900092346B0C90476B0092286B0091446B0B66
:100BA00090486B0092346B0091456B0C904A6B003F
:100BB00092286B0091476B0B904C6B0092346B004A
:100BC00091446B06904A6B06486B0092286B00912B
:100BD000456B0C90476B0092346B0091446B0B900B
:100BE000456B00922D6B0091406B0C92396B0B9012
:100BF000456B00922D6B0091406B0C90486B0092FE
:100C0000396B0091456B0C904C6B00922D6B0091F1
:100C1000486B0B92396B0C904A6B00922D6B0091D4
:100C2000476B0B90486B0092396B0091456B0C90B1
:100C3000476B00922C6B0091446B0C92386B0B90BD
:100C4000476B00922C6B0091446B0C90486B0092A8
:100C5000386B0091456B0B904A6B0092286B0091AA
:100C6000476B0C92346B0C904C6B0092286B00918C
:100C7000476B0B92346B0C90486B00922D6B00917C
:100C8000456B0B92396B0C90456B00922D6B00916C
:100C9000406B0B92396B0C90456B00922D6B009161
:100CA000406B0C92396B0B2D6B00912F6B0C9230BB
:100CB0006B0091396B0B92266B0091326B0C904A52
:100CC0006B0092326B0091456B0C92266B0B904D32
:100CD0006B0092326B00914A6B0C90516B00922624
:100CE0006B00914D6B0B92326B0C904F6B00922608
:100CF0006B00914C6B0C904D6B0092326B00914AE3
:100D00006B0B904C6B00922D6B0091486B0C9239E1
:100D10006B0B2D6B0C90486B0092396B0091456BFF
:100D20000C904C6B00922D6B0091456B0B92396BC4
:100D30000C904A6B00922D6B0091476B0B90486BA7
:100D40000092396B0091456B0C90476B00922C6BB5
:100D50000091446B0C92386B0B90476B00922C6B9C
:100D60000091446B0C90486B0092386B0091456B7E
:100D70000B904A6B0092286B0091476B0C92346B7E
:100D80000B904C6B0092286B0091476B0C92346B6C
:100D90000C90486B00922D6B0091456B0B92396B58
:100DA0000C90456B00922D6B0091406B0B92396B50
:100DB0000C90456B00922D6B0091406B0C92396B3F
:100DC0000B2D6B0C396B0B904C6B0092286B0091C8
:100DD000476B0C92346B0C90476B0092286B009120
:100DE000446B0B90486B0092346B0091456B0C90F8
:100DF0004A6B0092286B0091476B0B904C6B0092F2
:100E0000346B0091446B06904A6B06486B00922845
:100E10006B0091456B0C90476B0092346B009144D2
:100E20006B0B90456B00922D6B0091406B0C9239CF
:100E30006B0B90456B00922D6B0091406B0C9048B2
:100E40006B0092396B0091456B0C904C6B00922DAE
:100E50006B0091486B0B92396B0C904A6B00922D92
:100E60006B0091476B0B90486B0092396B0091457A
:100E70006B0C90476B00922C6B0091446B0B92387B
:100E80006B0C90476B00922C6B0091446B0C90485C
:100E90006B0092386B0091456B0B904A6B00922867
:100EA0006B0091476B0C92346B0B904C6B0092284B
:100EB0006B0091476B0C92346B0C90486B00922D39
:100EC0006B0091456B0B92396B0C90456B00922D2A
:100ED0006B0091406B0B92396B0C90456B00922D1F
:100EE0006B0091406B0C92396B0B2D6B00912F6B4B
:100EF0000C92306B0091396B0B92266B0091326B28
:100F00000C904A6B0092326B0091456B0C92266BF1
:100F10000B904D6B0092326B00914A6B0C90516BB1
:100F20000092266B00914D6B0B92326B0C904F6BC5
:100F30000092266B00914C6B0C904D6B0092326BC3
:100F400000914A6B0B904C6B00922D6B0091486B9B
:100F50000C92396B0B2D6B0C90486B0092396B0027
:100F600091456B0B904C6B00922D6B0091456B0C77
:100F700092396B0C904A6B00922D6B0091476B0B72
:100F800090486B0092396B0091456B0C90476B0059
:100F9000922C6B0091446B0B92386B0C90476B005A
:100FA000922C6B0091446B0C90486B0092386B0054
:100FB00091456B0B904A6B0092286B0091476B0C2C
:100FC00092346B0B904C6B0092286B0091476B0C2A
:100FD00092346B0C90486B00922D6B0091456B0B1B
:100FE00092396B0C90456B00922D6B0091406B0B0E
:100FF00092396B0C90456B00922D6B0091406B0CFD
:1010000092396B0B2D6B0C396B0B90406B00922D52
:101010006B00913C6B0C92346B0C2D6B0B346B0C96
:10102000903C6B00922D6B0091396B0B92346B0CE2
:101030002D6B0B346B0C903E6B00922C6B00913837
:101040006B0C92346B0B2C6B0C346B0B903B6B006A
:10105000922C6B0091386B0C92346B0C2C6B0B3414
:101060006B0C903C6B00922D6B0091396B0B9234A2
:101070006B0C2D6B0C346B0B2D6B0091396B0C9240
:10108000346B0B2D6B0C346B0C2C6B0091386B0B91
:1010900092346B0C2C6B0B346B0C2C6B0C346B0B79
:1010A0002C6B0C346B0B90406B00922D6B00913CC1
:1010B0006B0C92346B0B2D6B0C346B0C903C6B00F7
:1010C000922D6B0091396B0B92346B0C2D6B0B34A2
:1010D0006B0C903E6B00922C6B0091386B0C923431
:1010E0006B0B2C6B0C346B0B903B6B00922C6B00DE
:1010F00091386B0C92346B0C2C6B0B346B0C903C5A
:101100006B00922D6B0091396B0B92346B0C9040FD
:101110006B00922D6B00913C6B0C92346B0B9045E5
:101120006B00922D6B0091406B0C92346B0B9045D1
:101130006B00922D6B0C346B0C90446B00922C6BFB
:101140000091406B0B92346B0C2C6B0B346B0C2CA2
:101150006B0B346B0C2C6B0C346B0BFF06014500D6
:10116000FF2F0000C01100B0077F00C10300B107CE
:101170007F00C20B00B2077F0092326900C30700F4
:10118000B3077F00930D3200903E7F0A92326900D0
:1011900093073E02903E7F049232690093073E011E
:1011A000903E7F05922D690093073E0190397F0B99
:1011B000922D690093073E0090397F0B92326900AF
:1011C000930D3201903E7F0B9232690093073E01EE
:1011D000903E7F049232690093073E01903E7F0566
:1011E000922D690093073E0190397F0B922D690083
:1011F00093073E0190397F0A92326900930D3201C4
:10120000903E7F0A9232690093073E01903E7F052F
:101210009232690093073E01903E7F05922D69004E
:1012200093073E0190397F0A922D690093073E0192
:1012300090397F0B92326900930D3201903E7F0A04
:101240009232690093073E01903E7F059232690019
:1012500093073E01903E7F05922D6900930D320168
:1012600090397F0B922D6900930D370090397F0BD9
:10127000FF0601530092326900930D3C01903E7FBE
:101280000091395D0A9232690093073E0190457FD3
:101290000091415D059232690093073E06922D69E7
:1012A0000093073E00904A7F0091415D0B922D69AB
:1012B0000093073E0190497F0091435D0B92326994
:1012C0000093073E01904A7F0091415D0A92326986
:1012D0000093073E0190457F0091405D0592326981
:1012E0000093073E0190457F0091415D05922D6975
:1012F0000093073E0190467F0091435D0A922D695D
:101300000093073E0190437F0091405D0B9232694C
:101310000093073E0090457F0091415D0B9232693A
:101320000093073E0190417F00913D5D0592326937
:101330000093073E0090417F00913E5D05922D692C
:101340000093073E0190437F0091405D0B922D6911
:101350000093073E0190407F00913D5D0A92326903
:101360000093073E0190417F00913E5D0B923269F0
:101370000093073E01903E7F0091385D05923269EF
:101380000093073E01903E7F0091395D05922D69E3
:101390000093073E0090407F00913D5D0B922D69C8
:1013A0000093073E01903D7F0091395D0A923269BA
:1013B0000093073E01903E7F0091395D0B923269A8
:1013C0000093073E0090397F0091355D05923269A8
:1013D0000093073E069231690093073E01903A7FE1
:1013E0000091375D0B922D690093073E01903D7F80
:1013F0000091375D0A9232690093073E01903E7F6B
:101400000091395D0B9232690093073E0190397F5C
:101410000091355D059232690093073E059231696E
:101420000093073E01903A7F0091375D0B922D6942
:101430000093073E0190407F00913D5D0A92326922
:101440000093073E01903E7F0091395D0A92326918
:101450000093073E0190457F0091415D05923269FE
:101460000093073E06922D690093073E01904A7F44
:101470000091415D0A922D690093073E0190497FDA
:101480000091435D0B9232690093073E01904A7FC1
:101490000091415D0B9232690093073E0090457FB9
:1014A0000091405D059232690093073E0190457FAF
:1014B0000091415D05922D690093073E0190467FA2
:1014C0000091435D0A922D690093073E0290437F8D
:1014D0000091405D0A9232690093073E0190457F7A
:1014E0000091415D0A9232690093073E0190417F6D
:1014F00000913D5D059232690093073E0190417F66
:1015000000913E5D05922D690093073E0190437F57
:101510000091405D0A922D690093073E0190407F43
:1015200000913D5D0B9232690093073E0190417F2F
:1015300000913E5D0A9232690093073E01903E7F22
:101540000091385D059232690093073E01903E7F1D
:101550000091395D05922D690093073E0190407F0F
:1015600000913D5D0A922D690093073E01903D7FF9
:101570000091395D0A9232690093073E02903E7FE6
:101580000091395D0A9232690093073E0190397FDC
:101590000091355D059232690093073E06923169EC
:1015A0000093073E00903A7F0091375D0B922D69C2
:1015B0000093073E01903D7F0091375D0B923269A9
:1015C0000093073E00903E7F0091395D0B92326997
:1015D0000093073E0190397F0091355D0592326995
:1015E0000093073E059231690093073E02903A7FCF
:1015F0000091375D0A922D690093073E0190407F6C
:1016000000913D5D0A9232690093073E01903E7F52
:101610000091395D0B9232690093073E0692326960
:101620000093073E05922E690093073E0C922B69AA
:101630000093073E0B9232690093073E0C92326989
:101640000093073E059232690093073E0692316986
:101650000093073E0190407F0091395D0A922D6909
:101660000093073E02903D7F0091395D0A923269F6
:101670000093073E01903E7F0091395D0B923269E5
:101680000093073E059232690093073E06922E6949
:101690000093073E0C922B690093073E0B92326930
:1016A0000093073E0B9232690093073E069232691F
:1016B0000093073E06922B690093073E0190407FFE
:1016C00000913C5D0A9224690C29690093073E0150
:1016D00090417F0A9235690093073E0190417F0552
:1016E0009229690093073E0190417F059224690089
:1016F00093073E0190437F0A9230690093073E01B1
:1017000090407F0B9229690093073E0190417F0A28
:101710009235690093073E0190417F059229690047
:1017200093073E0190417F049224690093073E0293
:1017300090437F0A9230690093073E0190407F0BEF
:101740009229690093073E0090417F0B9235690012
:1017500093073E069229690093073E06922469008A
:1017600093073E0B9230690093073E0B9229690064
:1017700093073E0C9235690093073E059229690054
:1017800093073E069224690093073E0190437F0031
:1017900091405D0B9230690093073E0B92296900DE
:1017A00093073E0190457F0091415D0B92356900A2
:1017B00093073E0190457F0091415D0592296900A4
:1017C00093073E0190457F0091415D04922469009A
:1017D00093073E0190467F0091435D0B9230690074
:1017E00093073E0190437F0091405D0A9229690072
:1017F00093073E0190457F0091415D0A9235690053
:1018000093073E0290457F0091415D049229690053
:1018100093073E0190457F0091415D059224690048
:1018200093073E0190467F0091435D0B9230690023
:1018300093073E0090437F0091405D0B9229690021
:1018400093073E0190457F00913C5D0B9235690006
:1018500093073E059229690093073E06922469008A
:1018600093073E0C9230690093073E0B9229690062
:1018700093073E0B9235690093073E069229690053
:1018800093073E06922B690093073E0190477F0025
:10189000913E5D0A9237690093073E0C92246900DD
:1018A00093073E0190487F0091405D0A92306900A5
:1018B00093073E0190487F0091415D0592246900A5
:1018C00093073E0190487F0091435D059224690093
:1018D00093073E0190487F0091405D0B9230690074
:1018E00093073E0090487F0091435D0B9229690069
:1018F00093073E01904A7F0091455D0A9235690049
:1019000093073E0190487F0091455D05922969004B
:1019100093073E069229690093073E0090487F0096
:1019200091455D0B9235690093073E0190477F001A
:10193000913E5D0B9224690093073E0190487F0021
:1019400091405D0A9230690093073E0190487F0004
:1019500091415D059224690093073E0190487F0004
:1019600091435D059224690093073E0190487F00F2
:1019700091405D0A9230690093073E0190487F00D4
:1019800091435D0B9229690093073E00904A7F00C6
:1019900091445D0B9235690093073E0190487F00AA
:1019A00091445D059229690093073E0592296900DB
:1019B00093073E0190487F0091445D0B923569008A
:1019C00093073E0190477F00913E5D0A9224690093
:1019D00093073E0190487F0091405D0B9230690073
:1019E00093073E0190487F0091415D059224690074
:1019F00093073E0190487F0091435D059224690062
:101A000093073E0090487F0091405D0B9230690043
:101A100093073E0190487F0091435D0A922469003C
:101A200093073E0190477F00913E5D0B9230690025
:101A300093073E0090477F0091405D059224690026
:101A400093073E0190477F0091415D059224690014
:101A500093073E0190477F00913E5D0B92306900F5
:101A600093073E0190477F0091415D0A92246900EF
:101A700093073E0190467F00913E5D0B92306900D6
:101A800093073E0190467F0091405D0592246900D6
:101A900093073E0090467F0091415D0592246900C6
:101AA00093073E0190467F0091405D0B92306900A4
:101AB00093073E0190437F0091405D0A92246900A4
:101AC00093073E0190407F0091375D0A9230690094
:101AD00093073E0190417F00913E5D05922469008D
:101AE00093073E069224690093073E0190437F00CE
:101AF00091405D0A9230690093073E01903C7F005F
:101B000091345D0B9226690093073E0190437F005C
:101B100091395D0B9232690093073E0090417F003E
:101B200091395D059226690093073E0190417F003F
:101B300091395D059226690093073E01903C7F0034
:101B400091395D0A9232690093073E0290417F000D
:101B500091395D0A9226690B32690093073E019024
:101B60003C7F0091395D059226690093073E019004
:101B70003E7F00913B5D059226690093073E0190F0
:101B80003C7F0091395D0A9232690093073E0190D3
:101B9000397F0091355D0B9226690093073E0190D5
:101BA000437F0091385D0A9232690093073E0190AD
:101BB000417F0091385D059226690093073E0190B0
:101BC000417F0091385D059226690093073E0190A0
:101BD0003C7F0091385D0A9232690093073E019084
:101BE000417F0091385D0A9226690C3269009307A3
:101BF0003E01903C7F0091385D0592266900930775
:101C00003E01903E7F00913A5D0492266900930761
:101C10003E01903C7F0091385D0B92326900930742
:101C20003E0190387F0091355D0B92246900930747
:101C30003E00903C7F0091345D0B92306900930729
:101C40003E069224690093073E059224690093079B
:101C50003E0C9230690093073E0B92246900930773
:101C60003E0C9230690093073E0692246900930768
:101C70003E059224690093073E0C92306900930759
:101C80003E0B9224690093073E0C92306900930743
:101C90003E059224690093073E069224690093074B
:101CA0003E0B9230690093073E0C92246900930723
:101CB0003E0C9230690093073E0592246900930719
:101CC0003E069234690093073E01903D7F009137B4
:101CD0005D169232690093073E01903E7F0A923270
:101CE000690093073E02903E7F0492326900930799
:101CF0003E01903E7F05922D690093073E01903989
:101D00007F0A922D690093073E0190397F0B923232
:101D1000690093073E01903E7F0A92326900930763
:101D20003E01903E7F059232690093073E01903E4E
:101D30007F05922D690093073E0190397F0A922D0D
:101D4000690093073E0190397F0B92326900930737
:101D50003E01903E7F0A9232690093073E01903E19
:101D60007F059232690093073E01903E7F04922DD9
:101D7000690093073E0290397F0A922D690093070C
:101D80003E0190397F0B9232690093073E00903EEE
:101D90007F0B9232690093073E01903E7F0592329D
:101DA000690093073E01903E7F05922D69009307DD
:101DB0003E0090397F0B922D690093073E019039C8
:101DC0007F0AFF060145009232690093073E0290A8
:101DD0003E7F0091395D0A9232690093073E01907F
:101DE000457F0091415D049232690093073E06925F
:101DF0002D690093073E01904A7F0091415D0B924F
:101E00002D690093073E0190497F0091435D0A923E
:101E100032690093073E01904A7F0091415D0B9229
:101E200032690093073E0190457F0091405D059225
:101E300032690093073E0190457F0091415D049215
:101E40002D690093073E0190467F0091435D0B9200
:101E50002D690093073E0190437F0091405D0A92F7
:101E600032690093073E0190457F0091415D0A92DF
:101E700032690093073E0290417F00913D5D0492DC
:101E800032690093073E0190417F00913E5D0592CB
:101E90002D690093073E0190437F0091405D0B92B6
:101EA0002D690093073E0090407F00913D5D0B92AD
:101EB00032690093073E0190417F00913E5D0B9295
:101EC00032690093073E01903E7F0091385D049295
:101ED00032690093073E01903E7F0091395D059283
:101EE0002D690093073E0190407F00913D5D0B926C
:101EF0002D690093073E01903D7F0091395D0A9264
:101F000032690093073E01903E7F0091395D0A924D
:101F100032690093073E0190397F0091355D05924B
:101F200032690093073E069231690093073E0190A3
:101F30003A7F0091375D0A922D690093073E019028
:101F40003D7F0091375D0B9232690093073E01900F
:101F50003E7F0091395D0A9232690093073E0190FD
:101F6000397F0091355D059232690093073E0692F4
:101F700031690093073E01903A7F0091375D0B92E3
:101F80002D690093073E0090407F00913D5D0B92CC
:101F900032690093073E01903E7F0091395D0A92BD
:101FA00032690093073E0190457F0091415D0592A3
:101FB00032690093073E06922D690093073E009018
:101FC0004A7F0091415D0B922D690093073E01907D
:101FD000497F0091435D0B9232690093073E019067
:101FE0004A7F0091415D0A9232690093073E019059
:101FF000457F0091405D059232690093073E019054
:10200000457F0091415D05922D690093073E019047
:10201000467F0091435D0A922D690093073E01902F
:10202000437F0091405D0B9232690093073E009020
:10203000457F0091415D0B9232690093073E01900C
:10204000417F00913D5D059232690093073E00900B
:10205000417F00913E5D05922D690093073E0190FE
:10206000437F0091405D0B922D690093073E0190E4
:10207000407F00913D5D0A9232690093073E0190D6
:10208000417F00913E5D0B9232690093073E0190C3
:102090003E7F0091385D059232690093073E0190C2
:1020A0003E7F0091395D05922D690093073E0090B7
:1020B000407F00913D5D0B922D690093073E01909A
:1020C0003D7F0091395D0A9232690093073E01908D
:1020D0003E7F0091395D0B9232690093073E00907C
:1020E000397F0091355D059232690093073E069273
:1020F00031690093073E01903A7F0091375D0B9262
:102100002D690093073E01903D7F0091375D0A9253
:1021100032690093073E01903E7F0091395D0B923A
:1021200032690093073E0190397F0091355D059239
:1021300032690093073E059231690093073E019092
:102140003A7F0091375D0B922D690093073E019015
:10215000407F00913D5D0A9232690093073E0190F5
:102160003E7F0091395D0A9232690093073E0692E4
:1021700032690093073E06922E690093073E0B9248
:102180002B690093073E0C9232690093073E0C9234
:1021900032690093073E059232690093073E06922A
:1021A00031690093073E0190407F0091395D0A92AA
:1021B0002D690093073E02903D7F0091395D0A92A0
:1021C00032690093073E01903E7F0091395D0A928B
:1021D00032690093073E069232690093073E0692E9
:1021E0002E690093073E0B922B690093073E0C92D9
:1021F00032690093073E0B9232690093073E0692C4
:1022000032690093073E06922B690093073E0190C6
:10221000407F00913C5D0A9224690B296900930775
:102220003E0190417F0B9235690093073E0190413A
:102230007F059229690093073E0190417F04922413
:10224000690093073E0190437F0B9230690093072A
:102250003E0190407F0B9229690093073E00904118
:102260007F0B9235690093073E0190417F059229CB
:10227000690093073E0190417F049224690093070F
:102280003E0290437F0A9230690093073E019040DE
:102290007F0A9229690093073E0190417F0B923596
:1022A000690093073E069229690093073E05922430
:1022B000690093073E0C9230690093073E0B922908
:1022C000690093073E0C9235690093073E059229F9
:1022D000690093073E069224690093073E019043EC
:1022E0007F0A9230690093073E0C92296900930798
:1022F0003E0190457F0B9235690093073E00904563
:102300007F059229690093073E0190457F0592243D
:10231000690093073E0190467F0B92306900930756
:102320003E0090437F0B9229690093073E01904540
:102330007F0A9235690093073E0290457F049229F7
:10234000690093073E0190457F0592246900930739
:102350003E0190467F0A9230690093073E01904308
:102360007F0AFF2F0000C00300B0077F00C10C00F0
:10237000B1077F00C20C00B2077F0092393100B371
:10238000077F0093074B00B4077F00B5077F00B6B7
:10239000077F00B7077F00B8077F00B3077F00BA49
:1023A000077F00BB077F00BC077F00BD077F00BE23
:1023B000077F00BF077F01904868009141510B9251
:1023C00039310093074B01904868009141510592C3
:1023D0003B310093074B01904A68009143511192A1
:1023E0003C310093074B01904D6800914551059297
:1023F0003C310093074B01904C680091435105928A
:1024000037310093074B0190486800914051059285
:102410003B310093074B01904A6800914351119260
:102420003C310093074B01904D6800914551059256
:102430003E310093074B01904F6800914651059241
:102440003F310093074B019050680091485105922D
:1024500042310093074B0190516800914A51029319
:10246000074B03074B03074B03074B03074B0607B9
:10247000370607370607370607370BFF2F00000020
:10248000000000000000000000000000000000004C
:10249000000000000000000000000000000000003C
:1024A000000000000000000000000000000000002C
:1024B000FF00000000FFFFFF000000FFFFFF000023
:1024C0000000FF0000000000FF000000000000000E
:1024D00000000000FF000000000000000000FFFFFF
:1024E00000FFFF00FFFF00FFFF00FF0000FF0000F4
:1024F00000000000000000000000000000000000DC
:1025000000000000000000000000000000000000CB
:102510000000000000FF00FF0000FFFFFFFFFF00C2
:1025200000FF00FF000000FF00FF0000FFFFFFFFB3
:10253000FF0000FF00FF000000000000000000FF9F
:102540000000000000FFFFFF0000FF00000000008F
:1025500000FFFF000000000000FF0000FFFFFF0081
:1025600000000000FF000000000000000000FFFF6E
:102570000000FF00FFFF0000FF00000000FF000060
:102580000000FF00000000FF00000000FF0000FF4F
:10259000FF00FF0000FFFF0000000000000000FF40
:1025A00000000000FF00FF000000FF00FF0000002F
:1025B00000FF00000000FF00FF00FF00FF0000FF21
:1025C000000000FFFF00FF0000000000000000FF0F
:1025D000FF00000000FFFF00000000FF00000000FF
:1025E00000000000000000000000000000000000EB
:1025F00000000000000000000000000000000000DB
:10260000FF00000000FF0000000000FF00000000CD
:1026100000FF0000000000FF0000000000FF0000BD
:1026200000000000FF00000000000000000000FFAC
:10263000000000000000FF0000000000FF0000009C
:102640000000FF0000000000FF0000000000FF008D
:10265000000000FF0000000000000000000000007B
:102660000000000000FF00FF000000FFFFFF00006F
:10267000FFFFFFFFFF0000FFFFFF000000FF00FF64
:10268000000000000000000000000000000000004A
:10269000000000000000FF0000000000FF0000003C
:1026A000FFFFFFFFFF000000FF0000000000FF0031
:1026B000000000000000000000000000000000001A
:1026C000000000000000000000000000000000000A
:1026D00000000000000000000000000000FFFF00FC
:1026E000000000FFFF00000000FF000000000000ED
:1026F00000000000000000000000000000000000DA
:10270000FFFFFFFFFF0000000000000000000000CE
:1027100000000000000000000000000000000000B9
:1027200000000000000000000000000000000000A9
:1027300000000000000000000000000000FFFF009B
:10274000000000FFFF00000000000000000000008B
:102750000000000000000000FF00000000FF00007B
:102760000000FF00000000FF00000000FF0000006C
:102770000000000000000000000000000000002F2A
:102780002F2F00002F0000002F002F00002F2F0000
:102790002F002F002F002F2F00002F002F000000F0
:1027A0002F00002F2F2F000000000000000000006D
:1027B0002F000000002F2F00000000002F0000005D
:1027C00000002F00000000002F00000000002F007C
:1027D0000000002F2F2F0000000000000000002F3D
:1027E0002F2F00002F0000002F00000000002F00FE
:1027F00000002F2F0000002F000000002F0000001D
:1028000000002F2F2F2F2F00000000000000002FAE
:102810002F2F00002F0000002F00000000002F00CD
:10282000002F2F2F0000000000002F002F000000BD
:102830002F00002F2F2F00000000000000000000DC
:10284000002F000000002F2F0000002F002F00009D
:102850002F00002F00002F2F2F2F2F000000002F00
:1028600000000000002F00000000000000002F2FDB
:102870002F2F2F002F00000000002F00000000006D
:102880002F2F2F2F0000000000002F002F0000002E
:102890002F00002F2F2F000000000000000000007C
:1028A0002F2F0000002F000000002F00000000006C
:1028B0002F2F2F2F00002F0000002F002F000000CF
:1028C0002F00002F2F2F00000000000000002F2FEE
:1028D0002F2F2F00000000002F000000002F00000D
:1028E00000002F000000002F00000000002F00005B
:1028F0000000002F00000000000000000000002F7A
:102900002F2F00002F0000002F002F0000002F00AD
:10291000002F2F2F00002F0000002F002F0000009D
:102920002F00002F2F2F0000000000000000002FBC
:102930002F2F00002F0000002F002F0000002F007D
:10294000002F2F2F2F00000000002F000000002F6D
:102950000000002F2F000000000000000000000019
:102960000000000000000000000000FFFF00000069
:1029700000FFFF00000000000000000000FFFF005B
:10298000000000FFFF000000000000000000000049
:102990000000000000000000000000FFFF00000039
:1029A00000FFFF00000000000000000000FFFF002B
:1029B000000000FFFF00000000FF0000000000001A
:1029C0000000FF00000000FF00000000FF0000000A
:1029D00000FF000000000000FF000000000000FFFA
:1029E000000000000000FF000000000000000000E8
:1029F00000000000000000000000FFFFFFFFFF00DC
:102A0000000000000000000000000000FFFFFFFFCA
:102A1000FF0000000000000000000000000000FFB8
:102A2000000000000000FF000000000000FF0000A8
:102A300000000000FF00000000FF00000000FF0099
:102A4000000000FF0000000000000000000000FF88
:102A5000FFFF0000FF000000FF0000000000FF007B
:102A60000000FFFF00000000FF0000000000000069
:102A700000000000FF00000000000000000000FF58
:102A8000FFFF0000FF000000FF00FF00FFFFFF004E
:102A9000FF00FF00FF00FF00FFFFFF00FF0000003E
:102AA000000000FFFFFF000000000000000000FF2A
:102AB000FFFF0000FF000000FF00FF000000FF001C
:102AC000FF000000FF00FFFFFFFFFF00FF0000000E
:102AD000FF00FF000000FF00000000000000FFFFFB
:102AE000FFFF0000FF000000FF00FF000000FF00EC
:102AF000FFFFFFFF0000FF000000FF00FF000000DD
:102B0000FF00FFFFFFFF000000000000000000FFCB
:102B1000FFFF0000FF000000FF00FF0000000000BA
:102B2000FF0000000000FF0000000000FF000000A8
:102B3000FF0000FFFFFF0000000000000000FFFF9B
:102B4000FFFF0000FF000000FF00FF000000FF008B
:102B5000FF000000FF00FF000000FF00FF0000007A
:102B6000FF00FFFFFFFF0000000000000000FFFF6C
:102B7000FFFFFF00FF0000000000FF00000000005A
:102B8000FFFFFFFF0000FF0000000000FF0000004B
:102B90000000FFFFFFFFFF00000000000000FFFF3C
:102BA000FFFFFF00FF0000000000FF00000000002A
:102BB000FFFFFFFF0000FF0000000000FF0000001B
:102BC0000000FF000000000000000000000000FF07
:102BD000FFFF0000FF000000FF00FF0000000000FA
:102BE000FF00FFFFFF00FF000000FF00FF000000EC
:102BF000FF0000FFFFFFFF00000000000000FF00DB
:102C00000000FF00FF000000FF00FF000000FF00C9
:102C1000FFFFFFFFFF00FF000000FF00FF000000BC
:102C2000FF00FF000000FF0000000000000000FFA8
:102C3000FFFF00000000FF0000000000FF00000098
:102C40000000FF0000000000FF0000000000FF0087
:102C5000000000FFFFFF0000000000000000000077
:102C60000000FF0000000000FF0000000000FF0067
:102C700000000000FF00FF000000FF00FF00000058
:102C8000FF0000FFFFFF0000000000000000FF0049
:102C90000000FF00FF0000FF0000FF00FF00000039
:102CA000FFFF00000000FF00FF000000FF0000FF2A
:102CB0000000FF000000FF00000000000000FF0017
:102CC00000000000FF0000000000FF000000000006
:102CD000FF0000000000FF0000000000FF000000F7
:102CE0000000FFFFFFFFFF00000000000000FF00EA
:102CF0000000FF00FFFF00FFFF00FF00FF00FF00DC
:102D0000FF000000FF00FF000000FF00FF000000C8
:102D1000FF00FF000000FF00000000000000FF00B7
:102D20000000FF00FFFF0000FF00FF00FF00FF00AA
:102D3000FF0000FFFF00FF000000FF00FF00000099
:102D4000FF00FF000000FF0000000000000000FF87
:102D5000FFFF0000FF000000FF00FF000000FF0079
:102D6000FF000000FF00FF000000FF00FF00000068
:102D7000FF0000FFFFFF0000000000000000FFFF59
:102D8000FFFF0000FF000000FF00FF000000FF0049
:102D9000FFFFFFFF0000FF0000000000FF00000039
:102DA0000000FF000000000000000000000000FF25
:102DB000FFFF0000FF000000FF00FF000000FF0019
:102DC000FF000000FF00FF00FF00FF00FF0000FF0A
:102DD000000000FFFF00FF00000000000000FFFFF8
:102DE000FFFF0000FF000000FF00FF000000FF00E9
:102DF000FFFFFFFF0000FF0000FF0000FF000000DA
:102E0000FF00FF000000FF0000000000000000FFC6
:102E1000FFFF0000FF000000FF00FF0000000000B7
:102E200000FFFFFF000000000000FF00FF000000A7
:102E3000FF0000FFFFFF0000000000000000FFFF98
:102E4000FFFFFF000000FF0000000000FF00000087
:102E50000000FF0000000000FF0000000000FF0075
:102E600000000000FF000000000000000000FF0064
:102E70000000FF00FF000000FF00FF000000FF0057
:102E8000FF000000FF00FF000000FF00FF00000047
:102E9000FF0000FFFFFF0000000000000000FF0037
:102EA0000000FF00FF000000FF00FF000000FF0027
:102EB000FF000000FF00FF000000FF0000FF00FF18
:102EC00000000000FF000000000000000000FF0004
:102ED0000000FF00FF000000FF00FF00FF00FF00F8
:102EE000FF00FF00FF00FF00FF00FF00FF00FF00EA
:102EF000FF0000FF00FF0000000000000000FF00D6
:102F00000000FF00FF000000FF0000FF00FF0000C6
:102F10000000FF00000000FF00FF0000FF000000B5
:102F2000FF00FF000000FF00000000000000FF00A5
:102F30000000FF00FF000000FF00FF000000FF0096
:102F400000FF00FF00000000FF0000000000FF0085
:102F500000000000FF000000000000000000FFFF74
:102F6000FFFF0000000000FF00000000FF00000065
:102F700000FF00000000FF0000000000FF00000054
:102F80000000FFFFFFFF0000000000000000000045
:102F9000FFFF000000FF0000000000FF0000000035
:102FA000FFFF0000000000FF0000000000FF000025
:102FB00000000000FFFF0000000000000000000013
:102FC000FFFF000000FF0000FF00FF00FFFF00FF09
:102FD000FF00FF0000FFFF00FFFF00FF00FF0000F9
:102FE000FF000000FFFF000000000000000000FFE5
:102FF000FF000000000000FF0000000000FF0000D4
:10300000000000FFFF00000000FF0000000000FFC4
:10301000000000FFFF00000000000000000028008A
:103020001C001D00AD00AE00AE00AE00AE00AF0053
:103030001C001D001D0018001D001D001A001D00B1
:103040001D001C001D001D001D00B0001A001D0009
:103050001C001D001D001D001D001D001D001D0089
:103060001D001A00AD00AE00AE00AE00AE00AF0015
:103070001A001D00B1000000000000002200B20094
:103080001D0016001D001D001D001D001D001D005F
:10309000B300B4001D001800B500B6001D001D00EF
:1030A0001D0016001D001D001C001D001D00160047
:1030B0001D001D00B1000000000000001E00B20055
:1030C0001D001600B10000001E0000000000B2004C
:1030D0001D001D001D001D001A001D001D00180010
:1030E000B700B800B9001D001D00BA001D001D008A
:1030F0001C001D001D0018001D001A001D001D00F1
:103100001D001C00B1001E00000020000000B200E5
:103110001D001D00B1000000000024000000B200EE
:103120001D001D0018001D001D001D0016001D00C3
:103130001D001A001D00BB00BC00BD00BE00180031
:103140001D001D001D001D001D001D001D0018009C
:103150001D001D00B1000000000022002400B2008C
:103160001D001C00BF00C000C100C200C300C4009D
:103170001D001D001D001D0018001D001D001D006C
:103180001D00C5001D00C600C700C800C9001C0006
:10319000CA001D001D001D0016001D001D001D00A1
:1031A0001D001600BF00CB00C100C200C300CC0050
:1031B0001D001D00AD00CD00CE00CF00D000D1001D
:1031C000D200D300D400CD00CD00D5001D001A00E0
:1031D0001D00D600D700D800D900DA00DB001D00A2
:1031E000DC001D001A001D00AD00CD00CE00CF0098
:1031F000D000D100D200D300DD00CD00CD00D5003D
:103200001C001D00DE00DF00E000DF00DF00DF004B
:10321000DF00DF00DF00E100E200E3001C001D0032
:10322000E400E500E600E700E800E900EA00EB0062
:10323000EC00ED001D001D00DE00DF00DF00EE00F1
:10324000DF00DF00E100DF00DF00DF00E200E3007D
:103250001D001800EF000000000000002400000026
:1032600020000000000000000000E3001D001D0021
:10327000F000F100F200F300F400F500F600F700B2
:10328000F800F9001D001C00EF0020000000000005
:1032900000002200000000001E0000002400E300E7
:1032A0001D001D00EF00000000001E0000002200B5
:1032B00000000000000022000000E30018001D00D4
:1032C000FA00FB00FC00FD00FE00FF000001010110
:1032D000020103011D001D00EF000000000020009E
:1032E0000000000000000000000000000000E300FB
:1032F0001D001A00EF002000000000000000000088
:1033000000000000000000000000E3001D000401B8
:10331000050106010701080109010A010B010C0161
:103320000D010E011D001800EF000000000000005C
:103330001E00000000000000000020000000E3006C
:103340001C001D00EF000000000024000000200011
:10335000000000001E0000000000E3001D000F013F
:1033600010011101120113011401150116011701B9
:10337000180119011C001D00EF0000001E000000D4
:10338000000000001E000000240000000000E30018
:103390001D001A011B011C011D011D011D011D0144
:1033A0001D011D011D011D011D011E011F01200127
:1033B00021012201230124012501260127012801E1
:1033C00029012A012B012C011B011C011D011D01DA
:1033D0001D011D011D011D011D011D011D011E01FC
:1033E0001A0115002D012E011D001D001D001D00DC
:1033F0001D001D001D001D001D002F0130010000DB
:10340000000000000000310115001500300100002F
:1034100000000000000031012D012E011D001D00E3
:103420001D001D001D001D001D001D001D002F01A1
:10343000150015002D012E011D001D001D001D0091
:103440001D001D001D001D001D002F01300100008A
:1034500000000000000031011500150030010000DF
:1034600000000000000031012D012E011D001D0093
:103470001D001D001D001D001D001D001D002F0151
:10348000150015002D012E011D001D001D001D0041
:103490001D001D001D001D001D002F01300100003A
:1034A000000000000000310115001500300100008F
:1034B00000000000000031012D012E011D001D0043
:1034C0001D001D001D001D001D001D001D002F0101
:1034D000150015002D012E011D001D001D001D00F1
:1034E0001D001D001D001D001D002F0132013301B4
:1034F0003401350136013701150015003201330161
:1035000034013501360137012D012E011D001D004A
:103510001D001D001D001D001D001D001D002F01B0
:10352000150015002D012E011D001D001D001D00A0
:103530001D001D001D001D001D002F0115001500A0
:1035400015001500150015001500150015001500D3
:1035500015001500150015002D012E011D001D0080
:103560001D001D001D001D001D001D001D002F0160
:10357000150015002D012E011D001D001D001D0050
:103580001D001D001D001D001D002F011500150050
:103590001500150015001500150015001500150083
:1035A00015001500150015002D012E011D001D0030
:1035B0001D001D001D001D001D001D001D002F0110
:1035C000150015002D012E011D001D001D001D0000
:1035D0001D001D001D001D001D002F011500150000
:1035E0001500150015001500150015001500150033
:1035F00015001500150015002D012E011D001D00E0
:103600001D001D001D001D001D001D001D002F01BF
:10361000150015002D012E011D001D001D001D00AF
:103620001D001D001D001D001D002F0115001500AF
:1036300015001500150015001500150015001500E2
:1036400015001500150015002D012E011D001D008F
:103650001D001D001D001D001D001D001D002F016F
:10366000150015002D012E011D001D001D001D005F
:103670001D001D001D001D001D002F01150015005F
:103680001500150015001500150015001500150092
:1036900015001500150015002D012E011D001D003F
:1036A0001D001D001D001D001D001D001D002F011F
:1036B000150015002D012E011D001D001D001D000F
:1036C0001D001D001D001D001D002F01150015000F
:1036D0001500150015001500150015001500150042
:1036E00015001500150015002D012E011D001D00EF
:1036F0001D001D001D001D001D001D001D002F01CF
:10370000150015002D012E011D001D001D001D00BE
:103710001D001D001D001D001D002F0115001500BE
:1037200015001500150015001500150015001500F1
:1037300015001500150015002D012E011D001D009E
:103740001D001D001D001D001D001D001D002F017E
:10375000150015002D012E011D001D001D001D006E
:103760001D001D001D001D001D002F01150015006E
:1037700015001500150015001500150015001500A1
:1037800015001500150015002D012E011D001D004E
:103790001D001D001D001D001D001D001D002F012E
:1037A000150015002D012E011D001D001D001D001E
:1037B0001D001D001D001D001D00380139013A01CA
:1037C0003B013C013D013E013F01400139013A010D
:1037D0003B013C013D013E0141012E011D001D0048
:1037E0001D001D001D001D001D001D001D002F01DE
:1037F000150015002D012E011D001D001D001D00CE
:103800001D001D001D001D001D00420100000000E4
:103810000000000000000000310130010000000045
:10382000000000000000000043012E011D001D00EB
:103830001D001D001D001D001D001D001D002F018D
:1038400015001500440145014601460146014601A7
:10385000460146014601460146014701480148012B
:10386000480148014801480149014A01480148010D
:1038700048014801480148014B0145014601460104
:1038800046014601460146014601460146014C01FA
:103890001500150015001500150015001500150080
:1038A0001500150015001500150015001500150070
:1038B0001500150015001500150015001500150060
:1038C0001500150015001500150015001500150050
:1038D0001500150015001500150015001500150040
:1038E0001500210009000000000000000000000099
:1038F00000002000000000000000000000000000A8
:103900000000000020000000000000000000000097
:103910000000000022000000000000000000000085
:1039200000000000000000000000200000004D0129
:103930004E014F01500151015201240000000000CE
:103940001E00000000000000220000000000240013
:10395000000000001E000000000020000000000029
:1039600000000000200000000000000000005301E3
:103970005401550156015701580159012200000018
:1039800000000000200000000000000000001E00F9
:103990000000000000000000000000002200000005
:1039A00000001E00000000002200000022000000B5
:1039B0005A015B015C015D015E015F016001610113
:1039C00062016301640165016601670168016901C3
:1039D0006A016B016C016D016E016F017001710173
:1039E0007201730174017501760100001E00000070
:1039F000000020007701780179017A017B017C01C8
:103A00007D017E017F0180018101820183018401AA
:103A1000850186018701880189018A018B018C015A
:103A20008D018E018F01900191019201240000000F
:103A300000001E0000009301940195019301940180
:103A400096019701980199019A019B019C019D01A2
:103A50009E019F01A001A1019501A201A301A40162
:103A6000A501A601A701A801A901AA019C010000C6
:103A70000000000000000000AB01AC01AD01AB0193
:103A8000AE01AF01B001B101B201B301B401B501A2
:103A9000B601B701AB01B801B901AD01BA01BB0173
:103AA000BC01BD01BE01B601BF01B001C001C10131
:103AB0001E00000024000000220000000000200082
:103AC000000000001E0000002400000000000000B4
:103AD0001E00000022000000240000000000000082
:103AE0000000000020000000000020000000000096
:103AF0002200000024000000000000000000000080
:103B000000001E0000000000000000002000000077
:103B100000000000220000000000000000001E0065
:103B20000000000000000000000020000000000075
:103B3000220000000000000007000400150025001E
:103B40002600270028002900150035003600370020
:103B5000380039003A003B00510052005300540035
:103B600055005600570015006300640065006600AC
:103B700067001500070004001500150015002A0055
:103B800015001500150015003C003D003E003F00EB
:103B9000400015001500580059005A005B005C00F9
:103BA00015001500680069006A006B006C001500C4
:103BB000070004001500150015001500150015007C
:103BC00015001500150041004200430015001500C6
:103BD000150015005D005E005F0015001500150062
:103BE000150015001500150015001500070004004C
:103BF000150015001500150015001500150015001D
:103C0000150044004500460015001500150015007C
:103C10006000610062001500150015001500150018
:103C2000150015001500150005000200750076004E
:103C3000770078007900940095009600970098002E
:103C4000050002007A007B007C007D007E00990068
:103C50009A009B009C009D00050002007F008000F0
:103C60008100820083009E009F00A000A100A200AE
:103C7000050001002B002C002D002E002F00050058
:103C80000100300031003200330034000500010033
:103C90004700480049004A004B00050001004C0065
:103CA0004D004E004F0050000500030015006D0050
:103CB0006E006F0070008400850086008700880019
:103CC000A300A400A500A600A7000500030015009E
:103CD000150073007400150015008E008F00900011
:103CE000150015006800AC00150015000500030064
:103CF0001500150015001500150015009100920023
:103D000093001500150015001500150015000000A2
:103D100000000000000000000000000000000000A3
:103D20000000000000000000000000000000000093
:103D30000000000000000000000000000000FFFF85
:103D4000FF7F7F24FFBBBBBB1824FFBBFFBD182434
:103D50007FBBBD78181A7FBB7878181A7FBB78783C
:103D600018527FBB1818185224241A1A5252FFFFF7
:103D7000FF7F7F24FFECECEC9024FFECFFF5902418
:103D80007FECF5D9901A7FECD9D9901A7FECD9D96C
:103D900090527FEC9090905224241A1A5252FFFFB6
:103DA000FF7F7F24FF6F6F6F1424FF6FFFB7142412
:103DB0007F6FB71F141A7F6F1F1F141A7F6F1F1F8B
:103DC00014527F6F1414145224241A1A5252FFFFF3
:103DD000FF7F7F24FF7777771C24FF77FFB71C24B2
:103DE0007F77B72F1C1A7F772F2F1C1A7F772F2FE3
:103DF0001C527F771C1C1C5224241A1A5252FFFF9B
:103E0000FF7F7F24FFE5E5E58A24FFE5FFEE8A24B6
:103E10007FE5EECB8A1A7FE5CBCB8A1A7FE5CBCB49
:103E20008A527FE58A8A8A5224241A1A5252FFFF44
:103E3000FF7F7F24FFF3F3F39824FFF3FFF598242B
:103E40007FF3F5F0981A7FF3F0F0981A7FF3F0F013
:103E500098527FF39898985224241A1A5252FFFFCE
:103E6000FF7F7F24FF5F5F5F0424FF5FFFAF0424B9
:103E70007F5FAF07041A7F5F0707041A7F5F07079A
:103E800004527F5F0404045224241A1A5252FFFF82
:103E9000FFFFFF52FFADA4ADA452FFA4ADA4A452F6
:103EA000FFADADADA452FFADA4ADA452FFADADA426
:103EB000A452FFA4A4A4A452525252525252A4A4F7
:103EC000A4A4A4A4A45B495B49A4A4495B495BA442
:103ED000A45B495B49A4A4495B495BA4A45B495B1F
:103EE00049A4A4495B495BA4A4A4A4A4A4A4FFFF7F
:103EF000FFFFFFFFFFFFFFFFFFFFFFFFFFFFFFFFD2
:103F0000FFFFFFFFFFFFFFFFFFFFFFFFFFFFFFFFC1
:103F1000FFFFFFFFFFFFFFFFFFFFFFFFFFFFFFFFB1
:103F200000000000FFF57F000000FFECF57F0000BF
:103F30007FECFFD97F007FECD9D924007FECD92416
:103F400000007FEC24000000242400000000FFFF9C
:103F5000FFBFBF3FFFFDFDFD703FFFFDFFFF703F57
:103F6000BFFDFF78702DBFFD7878702DBFFD78788C
:103F7000705BBFFD7070705B3F3F2D2D5B5BFFFF83
:103F8000FFBFBF3FFFFFFFFFD83FFFFFFFFFD83F4F
:103F9000BFFFFFF2D82DBFFFF2F2D82DBFFFF2F224
:103FA000D85BBFFFD8D8D85B3F3F2D2D5B5BFFFFB1
:103FB000FFBFBF3FFFBFBFBF1F3FFFBFFFFF1F3F91
:103FC000BFBFFF371F2DBFBF37371F2DBFBF3737CD
:103FD0001F5BBFBF1F1F1F5B3F3F2D2D5B5BFFFFA5
:103FE000FFBFBF3FFFBFBFBF373FFFBFFFFF373F31
:103FF000BFBFFF3F372DBFBF3F3F372DBFBF3F3F45
:10400000375BBFBF3737375B3F3F2D2D5B5BFFFF14
:10401000FFBFBF3FFFFFFFFFD53FFFFFFFFFD53FC4
:10402000BFFFFFDED52DBFFFDEDED52DBFFFDEDEFD
:10403000D55BBFFFD5D5D55B3F3F2D2D5B5BFFFF2C
:10404000FFBFBF3FFFFDFDFDF03FFFFDFFFFF03F66
:10405000BFFDFFF8F02DBFFDF8F8F02DBFFDF8F81B
:10406000F05BBFFDF0F0F05B3F3F2D2D5B5BFFFF92
:10407000FFBFBF3FFFAFAFAF073FFFAFFFFF073F40
:10408000BFAFFF07072DBFAF0707072DBFAF07075C
:10409000075BBFAF0707075B3F3F2D2D5B5B9A9A1E
:1040A0009A9A9A9A9A484848489A9A484848489A00
:1040B0009A484848489A9A484848489A9A484848E6
:1040C000489A9A484848489A9A9A9A9A9A9A00001E
:1040D00000000000000000000000000000000000E0
:1040E0000000FF00FF00000000FF00000000FF00D4
:1040F000FF0000000000000000000000000099998F
:10410000999999999999999999999999999999991F
:10411000999999999999999999999999999999990F
:1041200099999999999999999999999999994848A1
:1041300048484848484848994848484848E2484814
:10414000484848EA48484899EAFEEA99484848EA0F
:104150004848484848E248484848489948484848F4
:104160004848484848484848484848E2484848E29B
:104170004848EA48EA48484848FE48484848EA4823
:10418000EA4848E2484848E24848484848484848D9
:10419000484848484848484848484848489948484E
:1041A000484848E248484848E2FEE248484848E271
:1041B000484848484899484848484848484848482E
:1041C000484848484848484848484899484848481E
:1041D0004848E248E248484848FE48484848E248DB
:1041E000E248484848484899484848484848484864
:1041F000484848484848484848484848484848483F
:10420000484848994848484899EA99484848489948
:10421000484848484848484848484848484848481E
:10422000484848484848484848484848484848480E
:10423000484899489948484848EA48484848994869
:10424000994848484848484848484848484848489D
:1042500048484848484848484848484848484848DE
:10426000484848484848484848E248484848484834
:1042700048484848484848484848484848484848BE
:1042800048484848484848484848484848484848AE
:10429000484848484848484848484848484848489E
:1042A000484848484848484848484848484800001E
:1042B00000000000000000990000000000E2000083
:1042C000000000EA00000099EAFEEA99000000EA16
:1042D0000000000000E20000000000990000000063
:1042E0000000000000000000000000E2000000E20A
:1042F0000000EA00EA00000000FE00000000EA0002
:10430000EA0000E2000000E20000000000000000FF
:104310000000000000000000000000000099000004
:10432000000000E200000000E2FEE200000000E207
:1043300000000000009900000000000000000000E4
:1043400000000000000000000000009900000000D4
:104350000000E200E200000000FE00000000E200B9
:10436000E2000000000000990000000000000000D2
:10437000000000000000000000000000000000003D
:10438000000000990000000099EA990000000099DF
:10439000000000000000000000000000000000001D
:1043A000000000000000000000000000000000000D
:1043B000000099009900000000EA00000000990048
:1043C0009900000000000000000000000000000054
:1043D00000000000000000000000000000000000DD
:1043E000000000000000000000E2000000000000EB
:1043F000000000000000000000000000000099998B
:10440000999999999999999999999999999999991C
:10441000999999999999999A5A9A999999995B1C04
:104420005B9A99999A1C1C1B9999995B2E369999BC
:1044300099999999999999999999999999999999EC
:1044400099999999999999999999999999999999DC
:1044500099995B9A999999991C1B5B5A995A9999C0
:104460009999999999999A9A999999995B5A999937
:10447000995A1C1B5199995B2E2552995A1C372E1B
:104480001B515B2E37372552253737372E1B99990D
:10449000999999999999999999999999999999998C
:1044A000999999999999999999999999999999997C
:1044B0009999999999995A5B519A5A5B1C2E999995
:1044C000999999999999999999999999999999995C
:1044D00099999999999999995A5A99995A5B5C51CC
:1044E00051995C2E53489199361C0949999999998B
:1044F000999999999999999999999999999999992C
:10450000999999999999999999999999999999991B
:10451000999999995A9A9999999A245B9199000035
:104520000000000000FFFFFFFFFF000000FF000091
:104530005A5A00FF00001C1C00FF00002E3700FF2D
:1045400000001B1C00FF00375152000000370036EE
:104550001C00000000370000FFFF003700FF0000D4
:1045600000000000FFFFFFFF00000000000000004F
:104570000000373700FFFFFF373700000000000062
:1045800000000000FF00FFFFFF000000FF0000FF31
:104590000000FF0000FFFF00FFFFFF00FF00FF0023
:1045A00000000000FF003737000000003737000030
:1045B0000000003700FF00FF000000FF00FFFF00C9
:1045C00000FF00FF00FF00FF00FF000000FF00FFF2
:1045D000000000FF00FF003700000000003700006F
:1045E0000091999900FF0099999900FF0099999974
:1045F00000FF005A5A5AFFFF001C1C1C00FF003726
:10460000362D00FF002D1B120000001209499900F1
:10461000000000000000A4A4A40000AD0000000001
:104620000000FFFF000013000000FF00000000007A
:10463000AD0000A4A4A400000000000000000000E1
:1046400000003700A400A4000000AD00ADAD0000E4
:10465000FF00FF00FF00FF00FF0000FFAD00AD0006
:104660000000A400A4002E00000000001B000000B9
:1046700000000000A40000A4A4A4AD00AD00000050
:10468000FF00FF000000FF00FF00FFFFAD00AD00D6
:1046900000ADA40000A4A4A40000000000000000DD
:1046A0000037000000A4003700A400AD003700ADC3
:1046B00000FF003700FF00FF003700FF00AD0000E3
:1046C00000AD00A4A4A400A40000000000000000AD
:1046D00000005191A4A4A4005B5A00000000362DF4
:1046E000FFFF001C1C1C000000131313000000003F
:1046F0005151A4A4A4009999000000009999999996
:104700009999999999999999999999999999999919
:104710009A5A5A5A5A5A995A5B251C1C99995152BD
:104720001B2599999999515299999999999999997A
:10473000999A1B36999999995B2E999999995A1C2E
:104740005A5A5A5A5A1C1C1C1C1C1C1C2E37373710
:1047500037371B1C2E37373751521B2E373737361A
:104760001C1B5B5B373737362E2E373737373737DB
:1047700037373737373737373737373737373737C9
:1047800037373737373737373737373737372E37C2
:104790003737372D373737373737373737373737B3
:1047A0003737373737373737373737373737373799
:1047B0003737373737373737373737373737125B8A
:1047C0001C2E37372E2E3737373737373737372EB8
:1047D00037373737372E3737373737373737373772
:1047E00037373737373737373737373737372E1287
:1047F000089199991C09499999991B099199999935
:1048000013525A5A5A5A1C1C1C1C1C1C3737373757
:10481000362D3737372D1B1237371C120949999916
:1048200099999999999999999999999999999999F8
:104830005A5A5A5A5A9A1C2D1C5B51511C1209097A
:1048400051990909519199995191999999999999E0
:104850009999999A999999999999999999999999C7
:10486000999999999999999999999999995B645B69
:104870005B5B995A5B1C2D2E99999951521C5B9A3E
:10488000999999995B1C5B9A99995A2D2E245B9A58
:10489000995B37372E25995A2D3737375B5B25378C
:1048A0003737362E36373737363737373737995A1F
:1048B0002E2551999964373652995A2E37372551FA
:1048C0002D37373737253737373737373737373794
:1048D00037373737373737373737373737379999A4
:1048E00099995A5A99995A5B25125A642D371B493E
:1048F0002D37372D09513737371C4999373737242A
:10490000535B373737362E3637373737372D999948
:10491000999999995199999999999999999999994F
:104920009999999999999A9A99999A995B5B645BE3
:104930005A992E251B1249991B0949519999999900
:1049400099999999999999999999999999999999D7
:104950009999999A99999999995A5B9A9999999942
:10496000652E999A9A995B37995B242D2D379999E1
:1049700099999999999999999999999999999999A7
:1049800099995B5A9999999A2E2491995B64372E3B
:104990005B6D373737373737373737373737999989
:1049A0009999999999999999999999999999999977
:1049B0009999999999995B5B519999992E12919925
:1049C000999925519A9A9A99362D251B5299999918
:1049D0009999999999999999999999999999999947
:1049E0009999999999999999999999999999999937
:1049F0009999999999999999999999999A9A999925
:104A00009999999999999999999999999999999916
:104A10009999999999999999999999999999995A45
:104A200099995B9A6325995B633636373625999950
:104A300099999999999999999999999999999999E6
:104A400099999999999999999999999999999999D6
:104A500099995999999999995A9A99999999000076
:104A60000000003700A1A1A1000000FA0000FA0038
:104A700000FF0000FF0000FA0000FA0000A10000A3
:104A8000A100009999990000000000000036000084
:104A90000000000000A1A10000A1FA0000FA00FA45
:104AA000FF0000FF00FFFA0000FA00FAA10000A1D9
:104AB00000A1009999000000000000001B00000008
:104AC000000000000000A100A1A10000FA00FA000F
:104AD0000000FF00FFFF0000FA00FA000000A10044
:104AE000A1009999000099990000000000000000C1
:104AF00000000037A10000A1003700FA00FA0037DB
:104B0000FF0000FF003700FA00FA003600A100A104
:104B10000000990000999999000000000000000031
:104B20000000000000A1A1A1A10000FA0000000007
:104B300000FFFFFF001C00FA0000001300A10000AE
:104B40000000009999999900000000000000000001
:104B5000000000000027272727270000003700005B
:104B60001C1C00FF001C13130037001C51510027B0
:104B7000001C99990015002E99990000003600003C
:104B80000000000000272727000000370000370042
:104B900000FF0000FF00003737370000002700004B
:104BA00027000015000015000000000000000000B4
:104BB00000000000270027272700370037000037B4
:104BC000FF00FF0000FF37003737370027002700BE
:104BD000000015001500373700000000372D0000D9
:104BE0000037000000270037002700370037003764
:104BF00000FF003700FF00370037003700270000B4
:104C00000027001515150015000000000000000029
:104C1000001251912727002D5B5A00000037362DD6
:104C2000FFFF001C1C1C00000013131300000051A8
:104C300051511515009999990000009999999999E0
:104C400099999999999999999A9A99999A9A5B1C8B
:104C5000999A5B1C2E1C5A5B5B5B13139951515143
:104C60005151999999999999999999999999995A83
:104C70005B2E37375B1C2E3737372E3737373737B2
:104C80001C1C1C1C1C1C13131313131C51515149C5
:104C9000521C999999995B2E9999999A5C36373754
:104CA0003737373737373737373737373737373794
:104CB0003737373737373737373737373737373784
:104CC0003737373737372E3637362E1C1B1B3737DB
:104CD0003737373737373737373737373737373764
:104CE0003737373737373737373737373737373754
:104CF000373737373737373736373737372D37374F
:104D00003737373737373737373737373737373733
:104D10003737373737373737373737363737373724
:104D2000372E2E3637373737131B2E363737373770
:104D30001C1251913737362D5B5A37373737362D9E
:104D40001C1C1C1C1C1C1B12131313131349515144
:104D500051511C51999999992E1291999999999912
:104D6000999999999A99999999991B5A9A9999996E
:104D70001C2D1C5A9999131313135A9A51515151BE
:104D80005151999999999999999999999999999923
:104D9000999999529999999A5B65999A5B24252ECC
:104DA000995B1B1B13139951515151519999999921
:104DB0009999999999999999999999999999253739
:104DC000373737373737373737372E2D2E3737378F
:104DD00012122537373751522D3737379964373705
:104DE0002E245A2E2E2412095B241209499137379A
:104DF0003737373737373737373737373737373743
:104E00003737373737373737373737372537373744
:104E1000361C522E373724099964372E12483737FB
:104E200037372E1237373737372E3737372E2D2E65
:104E30003737372412133737371C49512D37372E60
:104E40005299521B25361C519991521324524951A3
:104E500099999999645B9A9999992D24645B9A9987
:104E600013131B1B5A995151515151999999999961
:104E700099999999999999999999999999999999A2
:104E800051243737999A632D3737995B1B1B1B3792
:104E90009991919163379999999A251C9999995A61
:104EA00052519999999999999999999999993737C5
:104EB0003737373737373737373737373737373782
:104EC0002E2E37372D37515B372D515A99992D1387
:104ED000919999995A519999999999999999372E9E
:104EE000125191993736645A9A992D1B1B1B5A9966
:104EF0002E5191919199255B999999999152519936
:104F00009999999999999999999999999999999911
:104F10009999995B99999999995B999999999951C5
:104F200099999999999999999999999999999999F1
:104F300099999999999999999999999999992E37AE
:104F4000373737372E37373737365B2E2E372E2504
:104F50005B995B24995B9999995199999999999938
:104F6000999999999999999999999999999924526D
:104F700099999999245A99999999515199999999E5
:104F80005A999999999999999999999999999999D0
:104F90009999999999999999999999999999999981
:104FA000995B2E3699999A5B2E1B99995B1C1B096C
:104FB000999A5A5208499999995191999999999917
:104FC00099999999999999999999999999992E1B3A
:104FD000131209521B1249495199484951999999FB
:104FE0005199999999999999999999999999999979
:104FF00099999999999999999999999999992537F7
:105000003737361B5B2E37372D125A2537361B089C
:105010009A5B2E251248995A2D1B095199991B12FA
:10502000489999995A495199999999519999095138
:10503000121B1C3648999151121B51999999915103
:1050400099999999999999999999999999999999D0
:105050009999999999999999999999999999371C9F
:10506000519999991C2D12919999121B1B5199993B
:105070009951121199999999995151999999999987
:105080009999999999999999999999999999999990
:105090009999999A9999999999999999999999997F
:1050A0009999999999999999999999999999999970
:1050B00099999999999999999999999999995A092F
:1050C00049919999919199999999999999999999B8
:1050D0009999999999999999999999999999999940
:1050E0009999999999999999999999999999995A6F
:1050F0002E24099199996412499999995A4991993B
:105100009999915191999999999999999999999967
:1051100099999999999999999999999999999999FF
:1051200099915212999999999991999999999999CD
:1051300099999999999999999999999999999999DF
:105140009999999999999999999999999999519917
:1051500099999999919999999999999999999999C7
:1051600099999999999999999999999999999999AF
:10517000999999999999999999999999999999999F
:10518000999999999999999999999999999999998F
:1051900099999999999900000000000000FFFFFF7C
:1051A000000000FF0000FF0000FFFFFF00009999D2
:1051B000999999999999999999999999999999995F
:1051C00099999999A2A3000000000000FFFFFF0039
:1051D00000FFFF00FF00FF00FFFFFF00FF009999A5
:1051E000999999999999999999999999999999992F
:1051F000ACEDEDEDACA3000000000000FF00FF00EF
:1052000000FF0000FF00FF00F600FFFF000099997B
:1052100099999999999999999999999999999999FE
:1052200099999999999900AC9999999900FFF6994A
:10523000999900F6FEA49999F6F6F6F6519999997E
:1052400099999999999999999999999999999999CE
:1052500099999999999999999999999999999999BE
:1052600099999999999AA3A39AA3F5FFFFFF999900
:10527000999999999999999999999999999999999E
:10528000999999999999999999999999999999998E
:105290009999ACECACA29999FFFFFFFFF6A39999FD
:1052A000999999999999999999999999999999996E
:1052B000999999999999999999999999999999995E
:1052C0009999999999999999999999A2A3AC999928
:1052D000999999999999999999999999999999993E
:1052E000999999999999999999999999999999992E
:1052F0009999999999999999A39A99999999999913
:10530000999A1B3600000000000000FFFFFFFFFF1E
:10531000000000FFFF001C1C003737002E3700FF85
:10532000FF001B1C00AAAA00515200AAAA0037368F
:105330001C1B5B5B000037362E2EFF0037373737DC
:10534000000000000037373737370000FFFF00004C
:10535000FFFFAAAA000000AAAAAAAA0000AA2E3744
:105360003737372D373737373737373737373737D7
:10537000373737373737000000000000FFFF00FFE6
:10538000FFFFAA0000AAAA00AA0000AAAA00125BB6
:105390001C2E37372E2E373737373737373737000A
:1053A000373700000000000000373700FF0000FF23
:1053B000FF00AAAA00AAAA00AAAA00AAAA002E125E
:1053C0000891999900000000009900FFFFFF00007C
:1053D000FFFF00FFFF0037370000FF0000FFFF0066
:1053E000002D0000AAAA0000000000AAAA009999B6
:1053F000999A1B36000000000000004747474747C6
:105400000000004747001C1C000606002E37009BCA
:105410009B001B1C009B9B00515200FFFF00373676
:105420001C1B5B5B000037362E2E470037373737A3
:105430000000000000370606060600009B9B0000E7
:105440009B9B9B9B0000009BFFFFFF0000FF2E37F4
:105450003737372D373737373737373737373737E6
:105460003737373737370000000000009B9B009B21
:105470009B9B9B00009B9B00FF0000FFFF00125BBB
:105480001C2E37372E2E3737373737373737370019
:105490003737000000000000000606009B00009B5C
:1054A0009B009B9B009B9B00FFFF00FFFF002E12B9
:1054B00008919999000000000099004747470000B3
:1054C000474700474700060600000600009B9B0078
:1054D000002D00009B9B0000000000FFFF00999939
:1054E000999A1B360000000000000032323232323E
:1054F0000000003232001C1C00FFFF002E3700FCB1
:10550000FC001B1C0037370051520037370037367C
:105510001C1B5B5B000037362E2E320037373737C7
:10552000000000000037FFFFFFFF0000FCFC000050
:10553000FCFC3737000000373737370000372E378D
:105540003737372D373737373737373737373737F5
:10555000373737373737000000000000FCFC00FC0D
:10556000FCFC370000373700370000373700125B8C
:105570001C2E37372E2E3737373737373737370028
:10558000373700000000000000FFFF00FC0000FCB7
:10559000FC003737003737003737003737002E1217
:1055A0000891999900000000009900323232000001
:1055B000323200323200FFFF0000FF0000FCFC002E
:1055C000002D0000373700000000003737009999A0
:1055D000999999999999999999AC99999999ACB5F9
:1055E000999999A3B5AC99999AADACAC9999A4AC99
:1055F000A3A39999ADA3A3A3999AACA39B9B00FFE6
:105600000000FF0000FFFFFF00000000000000009E
:10561000ACACACAC00FFACACACAC0000A3A3A3A39F
:10562000A30000000000000000FFFFFF0000FF00DB
:10563000FF00FF00FF00FF0000FF0000000000006F
:10564000FFFF00FFFFFFFF0000FF00FFFF0000FF64
:10565000FFFF000000000000FFFFFF0000FF000050
:10566000FF00FF00FF00FF0000FF0000000000003F
:1056700000ACACACACAC00ACACACACAC00A3A3A389
:10568000A3A3000000000000FF00FF0000FF00F6E1
:10569000F6F6519900B5B5F6499900ADADAD08994A
:1056A000ACACAD9B4899ACACAD495199A4AD524856
:1056B0009999009B489199990008519999999999BC
:1056C000999999999999999999999999999999994A
:1056D000999999999999999999999999999999993A
:1056E000999A9999999999A39999999999A3999915
:1056F000999999A4999999A3F5F69999A3F6F6B56C
:1057000099A3B5ADADADA3ADACACACACACACA4A401
:10571000A4A4ACA3A3A3A3A3A39A9B9B9B9BF6FFC8
:10572000FFFEFEFEF6F6F6F6F6F6B5B5B5B5B5B57E
:10573000ADADADADADADACACACACACACA4A4A4A4C3
:10574000A4A4A3A3A3A3A3A39B9B9B9B9B9BFEFEA1
:10575000FEFEFFF6F6F6F6F6F6FEB5B5B5B5B5F60D
:10576000ADADADADADF5ACACACACACADA4A4A4A44A
:10577000ACA3A3A3A3A4A4499A9AA3A451519A9910
:1057800099999999AC9199999999A45199999999BB
:10579000A451999999995251999999994899999996
:1057A0009999919999999999999999999999999971
:1057B000999999999999999999A399999999A3F5E9
:1057C000999999A3ADAC99999AACA3A399999AA3E5
:1057D0005A9A99999AA35A5A9999999A9A5A9AAC13
:1057E000F6FFFFFFF5F6F6F6F6F6B5ADB5B5B5B5CD
:1057F000ACACACACACACA3A3A3A3A3A39A9A9A9A67
:105800009A9B5A5A5A5A5A5B5A5A5A5A5251FFFF3D
:10581000AC999999F6F6F69A9999B5ADB65A9999BF
:10582000ACACAC519999A3AC52919999A3525199AE
:105830009999519199999999999999999999999928
:1058400099999999999999999999999999999999C8
:1058500099999999999999999999999A99999999B7
:10586000999A9999999999999999999999999999A7
:10587000999999999991999A9A9999A3F6F6FEED21
:10588000ACB5B5ADADADA4A3A3A3A49A5A5A5A5AC8
:105890005A919A5A5191999999999999999999994D
:1058A00099999999999999999999519999999999B0
:1058B00051999999999999999999999999999999A0
:1058C0009999999999999999999999999999995A87
:1058D000006767005B1C006767002E3700FFFF0052
:1058E0001C1C003C3C00131300ECEC00515100EC7C
:1058F000EC0099990006060099990000000067677E
:1059000000000067676700000067FFFF000000FFFE
:105910003C3C3C3C003CECECECEC000000000000AB
:105920000037373737372E3637362E1C1B1B6700AC
:1059300000676767670000676700FF0000FFFF0000
:105940003C00003C3C0000000000000037373737C7
:10595000373737373737373736373737372D6700E9
:1059600000676700676700676700FFFF00FFFF00D1
:105970003C3C003C3C00000000ECEC0037370000F1
:1059800000002E3637373700131B2E36373700000E
:1059900000676700000000676700000000FFFF006D
:1059A0003C00003C3C00ECECECECEC00ECECECECF7
:1059B0000000000606000099000000009999995A1D
:1059C000003333005B1C00FAFA002E3700FAFA00AD
:1059D0001C1C00FFFF001313001F1F005151001F6C
:1059E0001F00999900373700999900000000333360
:1059F00000000033FAFA000000FAFAFA000000FA98
:105A0000FFFFFFFF00FF1F1F1F1F0000000000001F
:105A10000037373737372E3637362E1C1B1B3300EF
:105A200000333333FA0000FAFA00FA0000FAFA0001
:105A3000FF0000FFFF00000000000000373737378D
:105A4000373737373737373736373737372D33002C
:105A500000333300FAFA00FAFA00FAFA00FAFA0010
:105A6000FFFF00FFFF000000001F1F00373700008E
:105A700000002E3637373700131B2E36373700001D
:105A800000333300000000FAFA00000000FAFA00C8
:105A9000FF0000FFFF001F1F1F1F1F001F1F1F1FF2
:105AA0000000003737000099000000009999995ACA
:105AB00000FFFF005B1C008686002E3700868600F4
:105AC0001C1C00F2F200131300323200515100FF8F
:105AD000FF00999900FFFF00999900000000FFFF67
